:020000040800F2
:10000000E0120020E5030008ED030008EF030008FC
:10001000F1030008F3030008F503000800000000E6
:10002000000000000000000000000000B502000811
:10003000F9030008000000006D030008D103000868
:10004000FF030008FF030008FF030008FF03000888
:10005000FF030008FF030008FF030008FF03000878
:10006000FF030008FF030008FF030008FF03000868
:10007000FF030008FF030008FF030008FF03000858
:10008000FF030008FF030008FF030008FF03000848
:10009000FF030008FF030008FF030008FF03000838
:1000A000FF030008FF030008FF030008FF03000828
:1000B000FF030008FF030008FF030008FF03000818
:1000C000FF030008FF030008FF030008FF03000808
:1000D000FF030008FF030008FF030008FF030008F8
:1000E000FF030008FF030008FF030008FF030008E8
:1000F000FF030008FF030008FF030008FF030008D8
:10010000FF030008FF030008FF030008FF030008C7
:10011000FF030008FF030008FF030008FF030008B7
:10012000FF030008FF030008FF030008FF030008A7
:10013000FF030008FF030008FF030008FF03000897
:10014000FF030008FF030008FF030008FF03000887
:10015000FF030008FF030008FF030008FF03000877
:10016000FF030008FF030008FF030008FF03000867
:10017000FF030008FF030008FF030008FF03000857
:10018000FF030008FF03000800F002F800F03CF84D
:100190000AA090E8000C82448344AAF10107DA45E2
:1001A00001D100F031F8AFF2090EBAE80F0013F0F8
:1001B000010F18BFFB1A43F001031847EC1A0000A7
:1001C0000C1B0000103A24BF78C878C1FAD8520737
:1001D00024BF30C830C144BF04680C6070470000C1
:1001E0000023002400250026103A28BF78C1FBD840
:1001F000520728BF30C148BF0B6070471FB501F0E0
:1002000001FD1FBD10B510BD00F022F91146FFF72A
:10021000F5FF0FB400F00CF80FBC00F0B9FB00F0D4
:1002200005F903B4FFF7EEFF03BC00F00BF9000083
:1002300004B000F00BFC0448002100F05BFC00F06F
:1002400017FC00F0F3F80000981C000880F3098800
:100250007047EFF309807047684680F309880448C7
:100260000078C00714BF0220032080F31488704771
:10027000581C0008DFF818C0EFF305831B0618BFF1
:100280006047EFF31483DB0708BF604700DF704768
:10029000C30B0008DFF818C0EFF305831B0618BF77
:1002A0006047EFF31483DB0708BF604700DF704748
:1002B000A90D0008EFF30980816911F8021CE1BB68
:1002C00090E80F1010B5E047BDE81040EFF3098C3F
:1002D0008CE80700214B93E80600914208BF704765
:1002E00041B91EF0100F16D11D49086820F0010019
:1002F000086010E01EF0100F06BF2CED108A0120E0
:10030000002081F825002CE9F00FC1F828C00CB4BA
:1003100001F0F4F80CBC1A60D2F828C0BCE8F00F69
:1003200092F8250000280EBF6FF0020E6FF0120E3B
:10033000BCEC108A8CF30988704710B5094A126822
:10034000914209D8084C54F8214090E80F10A0477A
:10035000EFF3098C8CE80F0010BD00002C0000208A
:1003600034EF00E09C0400089C04000810B500F085
:1003700089FFBDE81040154B93E80600914208BF85
:100380007047EFF3098C1EF0100F06BF2CED108A9A
:100390000120002081F825002CE9F00FC1F828C0C9
:1003A0000CB401F0ABF80CBC1A60D2F828C0BCE861
:1003B000F00F92F8250000280EBF6FF0020E6FF0CC
:1003C000120EBCEC108A8CF3098870472C000020B8
:1003D00010B501F05BF9CCE710B500F0F1FB01F0CE
:1003E00055F9C6E70948804709480047FEE7FEE798
:1003F000FEE7FEE7FEE7FEE7FEE7FEE7FEE7FEE7D5
:1004000004480549054A064B704700005906000894
:1004100089010008E00C0020E0120020E00E00201E
:10042000E00E0020004870477C0C002010B5044608
:10043000AFF300802046BDE81040FFF7F2BE7047E2
:100440007047704701491820ABBEFEE72600020046
:100450007546FFF7E7FFAE4605006946534620F0B4
:100460000700854618B020B5FFF7CAFFBDE8204059
:100470004FF000064FF000074FF000084FF0000B60
:1004800021F00701AC46ACE8C009ACE8C009ACE813
:10049000C009ACE8C0098D467047704700000000F5
:1004A000F0B50A4600210023002400BF3DE00125ED
:1004B00005FA01F3156805EA03049C4234D1056886
:1004C0004F000326BE40B543056015794E00B54088
:1004D0000668354305601579012D02D01579022D86
:1004E00016D185684F000326BE40B5438560557917
:1004F0004E00B540866835438560456801268E40CC
:10050000B5434560456896798E40B6B2354345603F
:10051000C5684F000326BE40B543C560D5794E007F
:10052000B540C6683543C560491C1029BFD3F0BD2E
:100530000246002013690B400BB1012000E00020AF
:1005400070474183704701837047000029B1064A14
:1005500012680243044B1A6004E0034A12688243A3
:10056000014B1A6070470000303802400CB5002083
:10057000019000903448006840F4803032490860AF
:1005800000BF3148006800F4003000900198401C22
:100590000190009818B90198B0F5A04FF1D12A4800
:1005A000006800F4003010B10120009001E000204C
:1005B00000900098012846D123484030006840F060
:1005C00080502149403108602048006840F4404094
:1005D0001E4908601C48083000681B490831086043
:1005E0000846006840F4004008600846006840F48F
:1005F000A05008601648091F0860081F006840F0F6
:100600008070091F086000BF0F48006800F000708C
:100610000028F9D040F205700E4908600A480830F9
:10062000006820F0030008490831086008460068A7
:1006300040F00200086000BF03480830006800F086
:100640000C000828F8D10CBD0038024000700040B2
:1006500019544007003C024010B51548006840F4AA
:100660007000134908601348006840F00100114908
:10067000086000200F49083108600E4800680E49E4
:1006800008400C4908600D48091D0860081F0068F3
:1006900020F48020091F0860002006490C31086002
:1006A000FFF764FF4FF0006001498039086010BD1A
:1006B00088ED00E000380240FFFFF6FE1030002415
:1006C0001CB501210820FFF741FF01208DF804002F
:1006D00000208DF806004FF40050009003208DF8A4
:1006E000050069460A48FFF7DBFE0FE04FF40051B2
:1006F0000748FFF728FF642000F09CF94FF40051F1
:100700000348FFF71EFF642000F094F9EEE70000B5
:10071000000C02401CB501210820FFF717FF012043
:100720008DF8040000208DF806004FF48040009002
:1007300003208DF8050069460B48FFF7B1FE11E074
:100740004FF480410848FFF7FEFE4FF4FA7000F0C6
:1007500071F94FF480410448FFF7F3FE4FF4FA704B
:1007600000F068F9ECE70000000C02401FB5012121
:100770000820FFF7EBFE01208DF80C0000208DF81B
:100780000E004FF48050029003208DF80D0002A956
:100790001548FFF785FE01210846FFF7D7FE012027
:1007A000009000208DF8040003208DF80500002043
:1007B0008DF806008DF8070069460C48FFF770FEBB
:1007C00011E001210948FFF7B3FE0446012C04D1D2
:1007D00001030548FFF7B7FE05E024B94FF4805147
:1007E0000148FFF7AEFEECE7000C024000000240BB
:1007F00010B5002A06DA22F00042D21D22F00703CB
:10080000102203E0D21C22F003030C2213B19C1827
:100810008C4201D9012010BD024401448360C0E92B
:100820000021C91AD018884202D810600246F9E7A0
:100830000020106010BD000005490978002905D08E
:1008400000684FF6FF71DFF80CC000DF7047000052
:10085000250000200D12000804490978002903D062
:100860000068DFF80CC000DF7047000025000020A2
:100870003511000808480068C0010BD5074800681A
:10088000C00707D0054880380068002802DA04490C
:100890000120087070470000FCED00E0800E00E0D1
:1008A000480000204FF06042D36F002BFCD0036B58
:1008B000D367D36F002BFCD0C07840EA0120A2F8A8
:1008C0007C0070474FF06041CA6F002AFCD081F86D
:1008D0007C0070470EB5802200B109B110460AE0D5
:1008E00001780129FAD101A900F020F8042801D0EB
:1008F000002000E01020DDE9011203B000BD70B55A
:100900000D46040003D012B92078012801D08020C0
:1009100070BD204600F008FB28B12946204600F0B3
:1009200030F8002070BD812070BD000010B5044675
:100930008089002824D0608904EB80000069086069
:10094000606840B16078022805D10021204600F09F
:10095000E7FC00F0D5FC04F10C0000BFD0E85F1FFD
:10096000491E8AB2C0E8512F0029F7D16089401C86
:1009700080B26081E189884201D100206081042039
:1009800010BD10B500F0CCFCBDE8104000F0B8BCC4
:100990001CB500F05BF801210820FFF7D7FD01200E
:1009A0008DF8040000208DF806004FF40040009000
:1009B00003208DF8050069461748FFF771FD4FF4D5
:1009C00000411548FFF7BFFD0021144800F092F8E0
:1009D000134908600021134800F08CF812490860A0
:1009E0000021124800F086F81149086000F040F834
:1009F00011E04FF400410848FFF7A5FD4FF47A706D
:100A000000F018F84FF400410348FFF79AFD4FF447
:100A10007A7000F00FF8ECE7000C0240101C0008A0
:100A200004000020201C000808000020301C0008E2
:100A30000C000020EFF3058109B182207047DFF838
:100A400008C000DF70470000A5190008EFF305801B
:100A500008B182207047EFF31480C00703D0DFF89D
:100A60000CC000DF704700F0A7BF0000B9190008F4
:100A700088B0EFF3058010B1822008B07047EFF323
:100A8000148010F00301134806D001291BD002295D
:100A900011D0032919D113E008A981F3098800783E
:100AA000C0070BD05FF0020080F31488BFF34F8FB4
:100AB000BFF36F8F09E00078C00706D10320F3E78A
:100AC0000078C00701D0FF20D7E7DFF80CC000DFB7
:100AD000D3E70000581C0008291A0008EFF305822C
:100AE0000AB1FFF7F7BEDFF808C000DF704700006B
:100AF000951A0008EFF305820AB100207047EFF362
:100B00001482D20702D1044A52781AB1DFF80CC01D
:100B100000DF704700F0DCBF24000020D11A00087D
:100B2000DFF80CC000DFDFF80CC000DFFEE70000DC
:100B30003D1B0008591B0008DFF804C000DF7047A8
:100B4000911B0008094C4FF0FF3529462068FFF73C
:100B5000C5FF02460846102AF7D1FFF7EDFF00282F
:100B6000F3D0024608469047EFE70000140000204B
:100B7000012806D0022805D0032804D0042804D177
:100B800002E003E002E001E000E000BF00BF00BFC0
:100B9000FEE700BFFEE70000074801684FF0E020D5
:100BA000416100218161072101610448016841F030
:100BB0007F41016040177047541C000820ED00E0A1
:100BC000704750E8001F31B10B6840E80032002A3E
:100BD000F7D108467047BFF32F8FFAE710B568B119
:100BE00061B10B3121F00302016844680B1A1B1B31
:100BF000934205D2084609680029F5D1002010BDAE
:100C0000210007D021180368C1E90032016001F119
:100C1000080010BD4260083010BD000070B50D46E0
:100C2000002812D04FF6FF71084C884204D2226887
:100C30000146104600F0A2FB20684570044800F011
:100C4000DDF8BDE8704000F06BBC70BD2C000020EA
:100C50004C0C00200F4810B50D4942680E480B6837
:100C60000068934204D00A60CB88421E1A448A80EE
:100C70008A8880B282420AD100200860054800F0CC
:100C8000BDF80146BDE81040024800F09BBB10BD16
:100C9000400000204C0C00203C00002070B5194D95
:100CA000E86800282CD0A88A401EA882002621E0EF
:100CB000A06838B161684160606810B1A168816066
:100CC0006660A6600F482146183800F07BFBA08ABA
:100CD000A8826078042804D10B49E08A0988084476
:100CE000A08201206070E068E860E06808B10561FA
:100CF000E6602661A88A002802D1EC68002CD7D1D2
:100D000070BD0000640C00203C00002070B50400A1
:100D10000FD00D4DA17801262868827891420CD918
:100D200000F06CFB286846702046BDE8704000F07B
:100D3000F7BB064800F062F8F7E766702146BDE8A9
:100D40007040024800F03EBB2C0000204C0C0020FC
:100D50000321FFF763BF000010B50446008B084372
:100D600020836278618B062A18D0052A19D108429F
:100D700017D001EA0002628388432083204600F0F6
:100D800077FB01206070628B0821204600F068FB31
:100D90002146BDE81040034800F014BB31EA0002D0
:100DA000EAD010BD4C0C0020814202D342688A4236
:100DB00001D80120704702680A60BFF35F8F50E8D6
:100DC000003F0A689A42F6D140E80012002AF2D1A8
:100DD0000020704768B161B10022083902E0024684
:100DE000006830B18842FAD12AB100681060002052
:100DF00070470120704700214160F8E701464068D4
:100E000042684A600B780022022B05D0012B03D0E8
:100E1000032B01D04260704743680BB19960426078
:100E200082607047810700D00020704770B504468B
:100E300000201546207001226270A17084F82410F1
:100E40006060A060E06020612062A082E082208378
:100E5000608384F82500E08C18B90548FFF7B1FEDF
:100E6000E06229462046BDE8704000F01DB8000051
:100E7000C801002008B1082901D2012070470144AF
:100E8000091F002201600A6042601046704700009E
:100E900003480021016003490988C18070470000B0
:100EA00040000020481C000870B5C28C1C4D9308FF
:100EB00002D12A88C2F38D03C26A02EB830254076F
:100EC00000D5121F4FF0807442E902140024264618
:100ED000B2F1400242F82460641C0E2CFAD3C469BB
:100EE0001462826201632968C90014D5112B12D9DA
:100EF0004FF0FF31103B11EB53014FF0CC3305D0D5
:100F000042F8043C42F8083D491EF9D1C16A121F5B
:100F10008A4200D91360C06A0249016070BD0000B6
:100F2000441C0008A52E5AE2C1898089081A70471E
:100F3000012202700022427082704260028142816E
:100F4000103982818908C181704700002DE9F04184
:100F5000044640680E464FF0000804F10C05E8B363
:100F60006078012701283ED0022813D003285CD1E5
:100F70000846FFF726FE050057D02046FFF73EFF44
:100F80000446294600F066FA6770204600F070FAC1
:100F9000214621E02046FFF731FF0646002100F000
:100FA00059FA2189F06904EB81010861D5E85F0FE6
:100FB000401C81B2C5E8501F0028F7D12089401C91
:100FC00080B22081E189884201D1A4F8088077703D
:100FD000304600F04DFA3146174800E00CE0BDE81D
:100FE000F04100F0EFB92046FFF708FF0446324613
:100FF000102100F035FAC7E7A089E189884216D2AE
:10100000208904EB80000661D5E85F0F401C81B2A7
:10101000C5E8501F0028F7D12089401C80B22081EC
:10102000E189884201D1A4F80880BDE8F081BDE8DB
:10103000F0410320FFF79CBD4C0C002070B5044626
:10104000808915460026C0B3608904EB80000069E2
:1010500008606089401C80B26081E189884200D1CB
:101060006681606810B1607802280BD014F10C041E
:10107000D4E85F0F401E81B2C4E8501F0028F7D1AA
:10108000002070BD2046FFF7B9FE0546002100F0A4
:10109000E1F92189E86904EB810108612089401C9C
:1010A00080B22081E189884200D12681284600F063
:1010B000DFF92846FFF72AFEE2E7FFE73DB10B48DC
:1010C000626801682AB1204600F07CF908E001203E
:1010D00070BD616001684E600068846001206070CE
:1010E00008212846FFF79AFDF1E700002C000020B8
:1010F000002814D0411C13D00C4A4FF6FE719042C8
:101100000CD800EB4002C2EBC0120948036803EBA5
:10111000C202521EB2FBF3F0884204D9084670475F
:101120004FF6FF70704780B27047000000093D0025
:10113000641C00082DE9F0410446408820B1314D7F
:10114000A1682A68914202D0FF20BDE8F081401ECC
:101150000004000C608053D12968086AA04209D1BC
:10116000E068086208E0C268A24202D1E268C26098
:1011700002E010460028F6D191F824000A6A06E041
:1011800053681BB19B78834200D91846D268002A65
:10119000F6D18870DFF870806168012611B32046AF
:1011A000FFF72CFE0746002100F054F9384600F006
:1011B0005FF96680A760386AE0603C622968D8F809
:1011C00004008A788078824201D3384616E00E48BF
:1011D00000F0F8F839460C4800F0F4F8286846703A
:1011E0007E700AE0D8F804108A782968824207D90C
:1011F000054800F0E7F8286846700020FFF786FDF4
:101200000020A2E72C0000204C0C002070B51C4DE3
:101210000E4604464188286861B1A268824210D116
:10122000A1F57F40FF3803D0491C6180002070BDCC
:10123000FF2070BDA060016AE1600462012060804F
:10124000F4E776B191788078814203D29070A068FB
:1012500000F0DEF8606830B12046296800F0B2F88E
:1012600008E0012070BD286860602968002048609F
:101270002868846009213046FFF7D0FCF1E70000C0
:101280002C00002070B51B480121026851700068D5
:1012900000F0B4F8184D6C7818E000BF05EBC401FD
:1012A00048680278EAB1012A20D000F00DF9E87808
:1012B000641C844200D100240F48801CD0E84F1FDA
:1012C000491EC9B2C0E8421F002AF7D1A8780028F9
:1012D000E4D16C700948FFF791FDBDE8704000F063
:1012E0001FB9098989B2FFF737FDE0E78968FFF781
:1012F0002DFEDCE72C000020380800204C0C0020DC
:101300000548017811B101214170704703494FF040
:1013100080500860704700003400002004ED00E0B9
:10132000F0B4154DAB1CEE784FEA0507D3E84F2F0C
:10133000B24202D1BFF32F8F11E0521CD4B2C3E8E6
:10134000424F002AF2D100BFD7E84F2F541CB442BD
:1013500000D10024E4B2C7E8434F002BF4D1EB786E
:10136000934205D905EBC202C2E90101F0BC704706
:10137000F0BC0220FFF7FCBB38080020104A10B573
:10138000D368ABB113469B8A03E08CB12246A48A92
:101390002344D4688B42F8D3C460D0600261C4682F
:1013A00004B12061591A8182908A401A908210BD3E
:1013B0000024C460D060C91A02619182848210BD89
:1013C000640C002030B502780023022A03D0012AE1
:1013D00001D0032A00D101238C7800E01046426836
:1013E00012B19578A542F9D24A6041601BB102B1B1
:1013F0009160886030BD0020FBE7000003494A6827
:101400004260002282604860704700004C0C00205F
:1014100010B5836804462BB9607801280ED1084BBB
:1014200003E09B6818780028FBD0204600F034F8D1
:101430002146BDE810401846FFF7C4BF10BD0000AC
:101440004C0C002090F82510806A09B1603070477C
:101450002030704710B50C46FFF7F4FF046010BD54
:1014600070B515460C46FFF7EDFFC0E9004570BDAD
:1014700010B5016900290ED0C268CA60C368002295
:101480003BB18B8A848A23448B82C3681961C26012
:1014900000E08A82026110BD816839B142684A6009
:1014A0004168002901D0806888607047054906E0DE
:1014B0004A68824202D1406848607047114600295C
:1014C000F6D170474C0C002010B5416881B1FFF790
:1014D00095FC0446FFF7CCFF0120607001462046D2
:1014E000FFF7B8FF2146BDE810400348FFF76ABF89
:1014F0004188491C418010BD4C0C00200648006802
:10150000D0E90A10814203D300680449884202D01E
:101510000120FFF72DBB70472C000020A52E5AE2BA
:101520000749022248604270064A1278002A05D014
:1015300006C98A4202D0C078FFF7C4B970470000DC
:101540002C0000204800002070B5FFF793F9002020
:101550000446204A204902E042F82040401C0B8803
:101560009842F9D31D48342201881D48FFF740F9FD
:101570001C48008880B240F000421B4801681B48AC
:10158000FFF736F91A48082201881A480068FFF761
:101590002FF9194DFF20194AE870EC8400212846E4
:1015A000FFF744FC1648042101704460154801709F
:1015B000C460046184821448154905600220687083
:1015C0001248047044700978C170BDE87040FFF79C
:1015D0005FBC0000BC080020401C00086C1C000818
:1015E00050000020441C0008701C0008C8010020A6
:1015F000941C00081C000020180C0020930B00080D
:101600004C0C0020640C00202C0000203808002026
:10161000781C00081B4810B5016841F47F01016087
:1016200000684FF07F4101EA00201649C043143999
:10163000B0FA80F00968C0F10800C1F302218142CC
:1016400000D3481C0F49091F0B686FF0807282405D
:1016500063F317020A60FFF79FFA0B49002808603E
:101660000EDB00F1E021FF2281F8002400F01F02D0
:10167000012191404009800000F1E020C0F80011F4
:1016800010BD000020ED00E0380000200C4810B52F
:101690000268012151700068FFF7B0FEFFF7DAFA27
:1016A00008480168491C0160FFF7F8FA00F07CFA6D
:1016B0000548FFF7A3FBBDE81040FFF731BF00006E
:1016C0002C0000203C0000204C0C0020002805D0FD
:1016D000810702D10178002900D000207047000066
:1016E00030B50B4C0023626805E095688D4204D844
:1016F00013461268491B002AF7D10260816012B1BB
:101700009568691A91600BB1186030BD606030BD9A
:10171000240000202DE9F0411E46174680460D4664
:1017200011F0FF0F00D14D1C1848FFF74AFA041EB4
:1017300016D0280AE762E084E9B242462046E66114
:10174000FFF774FB01251248124905E000EB850202
:1017500052F8042C32B16D1C0A889542F6D900204B
:10176000BDE8F081002DFAD000EB850040F8044C74
:101770000948E570007818B101212046FFF792F87A
:101780002046FFF7C3FA2846EAE700005000002091
:10179000BC080020401C0008480000202DE9F05F34
:1017A000584DDFF85891DFF8588129684FF0010A49
:1017B000002618B1CA78AB46824243D14E70FEF77C
:1017C00048FD29688862FFF799FE2868046A1FE0CF
:1017D0006068C0B12046FFF711FB07460021FFF704
:1017E00039FE3846FFF744FE87F801A039464648DF
:1017F000FFF7E8FDE168A4F802A0A760386AE0609E
:101800003C620C4604E0E0686680A660E660044640
:10181000002CDDD12868C27808EB820141F8046C05
:10182000C16A3A48FFF7C0FA2868C66299F8001002
:1018300011B10021FFF736F835482968FFF7B4FAEF
:101840002E6056E03349098888420CD808EB80089E
:1018500058F8045C3DB12846FFF71EFE2846FFF706
:1018600007FE2C6A22E0FF20BDE8F09F6068C0B14F
:101870002046FFF7C3FA07460021FFF7EBFD384685
:10188000FFF7F6FD87F801A039461F48FFF79AFDDC
:10189000E168A4F802A0A760386AE0603C620C46E8
:1018A00004E0E0686680A660E6600446002CDDD1B6
:1018B00048F8046C1548E96AFFF776FAEE6299F881
:1018C000000018B100212846FEF7ECFF2946104819
:1018D000FFF76AFA0C48DBF8001040688B788278D2
:1018E0009A4209D981F801A00748DBF80010FFF7F8
:1018F00069FD0020FFF70AFA0020B5E74800002044
:10190000BC0800202C0000204C0C0020C801002046
:1019100050000020401C000870B51A4D80B11A4AD2
:10192000128890421FD8194A02EB800050F8044CEC
:10193000CCB1A17084F824102868A04205D014E02E
:1019400028688170286880F82410114840688078E1
:10195000884215D90E482968FFF734FD296801200F
:10196000487000200AE0FF2070BD2046FFF750FDC0
:101970006078012804D10648FFF740FAFFF7C6F95E
:10198000002070BD2C000020401C0008BC08002076
:101990004C0C002002480068002800D0C078704736
:1019A0002C00002010B5002804D0FFF7A1FBFFF7A2
:1019B000CFF9402010BD000010B5134C207860B95D
:1019C0001248400705D1124801681048FFF752FA43
:1019D00008B1852010BDFFF7B7FD0E49FF2009684B
:1019E0008870207858B900210B4800F041F80B4965
:1019F000086000210A4800F06BF80A4908600120DD
:101A000020700020607010BD240000208806002097
:101A1000741C00082C0000208C1C000814000020FE
:101A20007C1C00081000002070B50F4D687808B1CC
:101A3000002070BD0D4C206890F824100020FFF7A6
:101A40006BFF2068C178FF2903D1816A203181F3BF
:101A50000988616811B9606000202060FFF7DAFD35
:101A600001206870E4E70000240000202C00002022
:101A700010B5040005D0216819B1606808B102787A
:101A80000AB1002010BD8900103189B2FFF750FA69
:101A9000606810BD3EB504000D464FF0800012D0C6
:101AA000217801290FD12846FFF722FB0246204664
:101AB00001A9FFF7C3FA012801D0102003E00DB1FE
:101AC000402000E00020DDE9011203B030BD00003D
:101AD00070B50E46040029D0206838B3606810F154
:101AE000030F23DB032821DCE16829B11048FFF74D
:101AF00075F805001AD000E000256068E168001D57
:101B000040EA012133462A462068FFF703FE40B130
:101B1000084901EB8000084950F8040C826A5163BF
:101B200070BD1DB129460248FFF754F9002070BD71
:101B300088060020BC080020210B000810B5FFF724
:101B400029FF002804D0034901EB800050F8040C61
:101B500010BD0000BC08002010B5FFF7B7FD18B19C
:101B6000C18C19B1C46A02E0802010BD0024C07885
:101B7000FFF714FEFF2806D01CB121460348FFF7EB
:101B800029F9002010BD812010BD0000880600202A
:101B900010B5FFF747F920B141690A68016910469D
:101BA00010BD0020014610BD2DE9F041134E7468B0
:101BB000002C1CD0A068124F401E4FF00108A060FE
:101BC00012E0254624687460002229463868FEF732
:101BD00096FE10B10420FEF7CBFF6879012808D0EB
:101BE00085F80480002C02D0A0680028E9D0BDE868
:101BF000F0812846E968FFF773FDF3E72400002031
:101C0000140000204FF04070E1EE100A7047000011
:101C1000C1060008000000000100000000000000F4
:101C2000150700080000000001000000000000008F
:101C30006D07000800000000010000000000000027
:101C400007000000C800020105000100001BB700EA
:101C50000C000000DF2E0000010000000200010067
:101C600052000400E80300000000000078010000BA
:101C7000C0040000B001000010000000450B000887
:101C80000200000001000000C80000000400000085
:101C9000D8080020000000009109000800000000A2
:101CA00001000000C8000000C81C0008000000205F
:101CB0004C000000C4010008141D00084C00002066
:101CC00094120000E0010008000000000000000085
:101CD0000000000000000000000000000000000004
:101CE00000000000000000000000000000000000F4
:101CF00000000000000000000000000000000000E4
:101D000000000000000000000000000000000000D3
:041D100000000000CF
:04000005080003E507
:00000001FF
